S01C00002E2E2F6C6F63616C2D74342D6665682D726F626F742E733139BA
S32D0000C00000000020CDF2000029F6000029F6000029F6000029F6000029F6000000000000000000000000000098
S32D0000C0280000000029F6000029F600000000000029F6000029F6000029F6000029F6000029F6000029F60000F2
S32D0000C05029F6000029F6000029F6000029F6000029F6000029F6000029F6000029F6000029F6000029F600008C
S32D0000C07829F6000029F6000029F6000029F6000029F6000029F6000029F6000029F6000029F6000029F6000064
S32D0000C0A029F6000029F6000029F6000029F6000029F6000029F6000029F6000029F6000029F6000029F600003C
S32D0000C0C829F6000029F6000029F6000029F6000029F6000029F6000029F6000029F6000029F6000029F6000014
S32D0000C0F029F60000FD64010029F6000029F6000029F6000029F6000029F6000029F6000029F6000029F60000A9
S32D0000C11829F6000029F6000029F6000029F6000029F6000029F6000029F6000029F6000029F6000029F60000C3
S32D0000C14029F6000029F6000029F6000029F600005D2E010029F6000029F6000029F6000029F6000029F600002E
S32D0000C16829F6000029F6000029F6000029F6000029F6000029F6000029F6000029F6000029F6000029F6000073
S32D0000C19029F6000029F6000029F60000BD28010011270100E527010079F600009529010029F6000029F600008C
S32D0000C1B829F6000029F6000029F6000029F6000029F6000029F6000029F6000029F6000029F6000029F6000023
S32D0000C41081F0004102E000BF83F0004330B54FEA41044FEA430594EA050F08BF90EA020F1FBF54EA000C55EAC6
S32D0000C438020C7FEA645C7FEA655C00F0E2804FEA5454D4EB5555B8BF6D420CDD2C4480EA020281EA030382EA0F
S32D0000C460000083EA010180EA020281EA0303362D88BF30BD11F0004F4FEA01314FF4801C4CEA113102D0404263
S32D0000C48861EB410113F0004F4FEA03334CEA133302D0524263EB430394EA050F00F0A780A4F10104D5F1200E8A
S32D0000C4B00DDB02FA0EFC22FA05F2801841F1000103FA0EF2801843FA05F359410EE0A5F120050EF1200E012A2D
S32D0000C4D803FA0EFC28BF4CF0020C43FA05F3C01851EBE37101F0004507D54FF0000EDCF1000C7EEB00006EEB67
S32D0000C5000101B1F5801F1BD3B1F5001F0CD349085FEA30004FEA3C0C04F101044FEA445212F5800F80F09A8000
S32D0000C528BCF1004F08BF5FEA500C50F1000041EB045141EA050130BD5FEA4C0C404141EB010111F4801FA4F114
S32D0000C5500104E9D191F0000F04BF01460020B1FA81F308BF2033A3F10B03B3F120020CDA0C3208DD02F1140C87
S32D0000C578C2F10C0201FA0CF021FA02F10CE002F11402D8BFC2F1200C01FA02F120FA0CFCDCBF41EA0C019040B1
S32D0000C5A0E41AA2BF01EB0451294330BD6FEA04041F3C1CDA0C340EDC04F11404C4F1200220FA04F001FA02F3B6
S32D0000C5C840EA030021FA04F345EA030130BDC4F10C04C4F1200220FA02F001FA04F340EA0300294630BD21FAA8
S32D0000C5F004F0294630BD94F0000F83F4801306BF81F480110134013D4EE77FEA645C18BF7FEA655C29D094EA1C
S32D0000C618050F08BF90EA020F05D054EA000C04BF1946104630BD91EA030F1EBF0021002030BD5FEA545C05D1A3
S32D0000C6404000494128BF41F0004130BD14F580043CBF01F5801130BD01F0004545F0FE4141F470014FF0000031
S32D0000C66830BD7FEA645C1ABF194610467FEA655C1CBF0B46024650EA013406BF52EA033591EA030F41F40021D7
S32D0000C69030BD00BF90F0000F04BF0021704730B54FF4806404F132044FF000054FF0000150E700BF90F0000F66
S32D0000C6B804BF0021704730B54FF4806404F1320410F0004548BF40424FF000013EE700BF42004FEAE2014FEAF9
S32D0000C6E031014FEA02701FBF12F07F4393F07F4F81F06051704792F0000F14BF93F07F4F704730B54FF460741B
S32D0000C70801F0004521F0004120E700BF50EA010208BF704730B54FF000050AE050EA010208BF704730B511F046
S32D0000C730004502D5404261EB41014FF4806404F132045FEA915C3FF4DCAE4FF003025FEADC0C18BF03325FEAA0
S32D0000C758DC0C18BF033202EBDC02C2F1200300FA03FC20FA02F001FA03FE40EA0E0021FA02F11444C1E600BF19
S32D0000C78070B54FF0FF0C4CF4E06C1CEA11541DBF1CEA135594EA0C0F95EA0C0F00F0DEF82C4481EA030621EAF3
S32D0000C7A84C5123EA4C5350EA013518BF52EA033541F4801143F4801338D0A0FB02CE4FF00005E1FB02E506F05F
S32D0000C7D00042E0FB03E54FF00006E1FB03569CF0000F18BF4EF0010EA4F1FF04B6F5007F64F5407404D25FEA0F
S32D0000C7F84E0E6D4146EB060642EAC62141EA55514FEAC52040EA5E504FEACE2EB4F1FD0C88BFBCF5E06F1ED8D2
S32D0000C820BEF1004F08BF5FEA500E50F1000041EB045170BD06F0004646EA010140EA020081EA0301B4EB5C0487
S32D0000C848C2BFD4EB0C0541EA045170BD41F480114FF0000E013C00F3AB8014F1360FDEBF002001F0004170BDF0
S32D0000C870C4F10004203C35DA0C341BDC04F11404C4F1200500FA05F320FA04F001FA05F240EA020001F0004207
S32D0000C89821F0004110EBD37021FA04F642EB06015EEA430E08BF20EAD37070BDC4F10C04C4F1200500FA04F32F
S32D0000C8C020FA05F001FA04F240EA020001F0004110EBD37041F100015EEA430E08BF20EAD37070BDC4F12005C7
S32D0000C8E800FA05F24EEA020E20FA04F301FA05F243EA020321FA04F001F0004121FA04F220EA020000EBD37028
S32D0000C9105EEA430E08BF20EAD37070BD94F0000F0FD101F00046400041EB010111F4801F08BF013CF7D041EA6D
S32D0000C938060195F0000F18BF704703F00046520043EB030313F4801F08BF013DF7D043EA0603704794EA0C0FF1
S32D0000C9600CEA135518BF95EA0C0F0CD050EA410618BF52EA4306D1D181EA030101F000414FF0000070BD50EA38
S32D0000C988410606BF1046194652EA430619D094EA0C0F02D150EA013613D195EA0C0F05D152EA03361CBF10467B
S32D0000C9B019460AD181EA030101F0004141F0FE4141F470014FF0000070BD41F0FE4141F4780170BD70B54FF04D
S32D0000C9D8FF0C4CF4E06C1CEA11541DBF1CEA135594EA0C0F95EA0C0F00F0A7F8A4EB050481EA030E52EA03359B
S32D0000CA004FEA013100F088804FEA03334FF0805545EA131343EA12634FEA022245EA111545EA10654FEA002676
S32D0000CA280EF000419D4208BF964244F1FD0404F5407402D25B084FEA3202B61A65EB03055B084FEA32024FF461
S32D0000CA5080104FF4002CB6EB020E75EB030E22BFB61A754640EA0C005B084FEA3202B6EB020E75EB030E22BF22
S32D0000CA78B61A754640EA5C005B084FEA3202B6EB020E75EB030E22BFB61A754640EA9C005B084FEA3202B6EBEA
S32D0000CAA0020E75EB030E22BFB61A754640EADC0055EA060E18D04FEA051545EA16754FEA06164FEAC30343EAAC
S32D0000CAC852734FEAC2025FEA1C1CC0D111F4801F0BD141EA00014FF000004FF0004CB6E711F4801F04BF0143AE
S32D0000CAF00020B4F1FD0C88BFBCF5E06F3FF6AFAEB5EB030C04BFB6EB020C5FEA500C50F1000041EB045170BDBC
S32D0000CB180EF0004E4EEA113114EB5C04C2BFD4EB0C0541EA045170BD41F480114FF0000E013C90E645EA060EC3
S32D0000CB408DE60CEA135594EA0C0F08BF95EA0C0F3FF43BAF94EA0C0F0AD150EA01347FF434AF95EA0C0F7FF499
S32D0000CB6825AF104619462CE795EA0C0F06D152EA03353FF4FDAE1046194622E750EA410618BF52EA43067FF432
S32D0000CB90C5AE50EA41047FF40DAF52EA43057FF4EBAE12E74FF0FF3C06E000BF4FF0010C02E000BF4FF0010C75
S32D0000CBB84DF804CD4FEA410C7FEA6C5C4FEA430C18BF7FEA6C5C1BD001B050EA410C0CBF52EA430C91EA030FEC
S32D0000CBE002BF90EA020F0020704710F1000F91EA030F58BF994208BF90422CBFD8176FEAE37040F0010070476E
S32D0000CC084FEA410C7FEA6C5C02D150EA013C07D14FEA430C7FEA6C5CD6D152EA033CD3D05DF8040B704700BFCD
S32D0000CC308446104662468C461946634600E000BF01B5FFF7B7FF002848BF10F1000F01BD4DF808EDFFF7F4FF13
S32D0000CC580CBF012000205DF808FB00BF4DF808EDFFF7EAFF34BF012000205DF808FB00BF4DF808EDFFF7E0FF18
S32D0000CC8094BF012000205DF808FB00BF4DF808EDFFF7CEFF94BF012000205DF808FB00BF4DF808EDFFF7C4FF40
S32D0000CCA834BF012000205DF808FB00BF4FEA410212F5001215D211D56FF47873B3EB625212D94FEAC12343F0D6
S32D0000CCD0004343EA505311F0004F23FA02F018BF404270474FF00000704750EA013005D111F0004008BF6FF016
S32D0000CCF8004070474FF00000704700BF4A0011D212F5001211D20DD56FF47873B3EB62520ED44FEAC12343F085
S32D0000CD20004343EA505323FA02F070474FF00000704750EA013002D14FF0FF3070474FF0000070474FEA410241
S32D0000CD48B2F1E04324BFB3F5001CDCF1FE5C0DD901F0004C4FEAC0024CEA5070B2F1004F40EB830008BF20F09E
S32D0000CD700100704711F0804F21D113F13872BCBF01F00040704741F480114FEA5252C2F11802C2F1200C10FAB1
S32D0000CD980CF320FA02F018BF40F001004FEAC1234FEAD32303FA0CFC40EA0C0023FA02F34FEA4303CCE77FEA26
S32D0000CDC0625307D150EA01331EBF4FF0FE4040F44000704701F0004040F0FE4040F40000704700BF80F00040CC
S32D0000CDE802E000BF81F0004142001FBF5FEA410392EA030F7FEA226C7FEA236C6AD04FEA1262D2EB1363C1BF06
S32D0000CE10D218414048404140B8BF5B42192B88BF704710F0004F40F4000020F07F4018BF404211F0004F41F4FA
S32D0000CE38000121F07F4118BF494292EA030F3FD0A2F1010241FA03FC10EB0C00C3F1200301FA03F100F000432B
S32D0000CE6002D5494260EB4000B0F5000F13D3B0F1807F06D340084FEA310102F10102FE2A51D2B1F1004F40EB94
S32D0000CE88C25008BF20F0010040EA03007047490040EB000010F4000FA2F10102EDD1B0FA80FCACF1080CB2EB5F
S32D0000CEB00C0200FA0CF0AABF00EBC25052421843BCBFD0401843704792F0000F81F4000106BF80F400000132EB
S32D0000CED8013BB5E74FEA41037FEA226C18BF7FEA236C21D092EA030F04D092F0000F08BF0846704790EA010FD7
S32D0000CF001CBF0020704712F07F4F04D1400028BF40F00040704712F100723CBF00F50000704700F0004343F0DC
S32D0000CF28FE4040F4000070477FEA226216BF08467FEA23630146420206BF5FEA412390EA010F40F480007047C1
S32D0000CF504FF0000304E000BF10F0004348BF40425FEA000C08BF704743F0964301464FF000001CE050EA010264
S32D0000CF7808BF70474FF000030AE000BF50EA010208BF704711F0004302D5404261EB41015FEA010C02BF84465B
S32D0000CFA00146002043F0B64308BFA3F18053A3F50003BCFA8CF2083AA3EBC25310DB01FA02FC634400FA02FC6B
S32D0000CFC8C2F12002BCF1004F20FA02F243EB020008BF20F00100704702F1200201FA02FCC2F1200250EA4C0034
S32D0000CFF021FA02F243EB020008BF20EADC7070474FF0FF0C1CEAD0521EBF1CEAD15392EA0C0F93EA0C0F6FD019
S32D0000D0181A4480EA010C400218BF5FEA41211ED04FF0006343EA501043EA5111A0FB01310CF00040B1F5000FE7
S32D0000D0403EBF490041EAD3715B0040EA010062F17F02FD2A1DD8B3F1004F40EBC25008BF20F00100704790F058
S32D0000D068000F0CF0004C08BF49024CEA502040EA51207F3AC2BFD2F1FF0340EAC250704740F400004FF0000388
S32D0000D090013A5DDC12F1190FDCBF00F000407047C2F10002410021FA02F1C2F1200200FA02FC5FEA310040F1D5
S32D0000D0B8000053EA4C0308BF20EADC70704792F0000F00F0004C02BF400010F4000F013AF9D040EA0C0093F04C
S32D0000D0E0000F01F0004C02BF490011F4000F013BF9D041EA0C018FE70CEAD15392EA0C0F18BF93EA0C0F0AD00B
S32D0000D10830F0004C18BF31F0004CD8D180EA010000F00040704790F0000F17BF90F0004F084691F0000F91F0BB
S32D0000D130004F14D092EA0C0F01D142020FD193EA0C0F03D14B0218BF084608D180EA010000F0004040F0FE4051
S32D0000D15840F40000704740F0FE4040F4400070474FF0FF0C1CEAD0521EBF1CEAD15392EA0C0F93EA0C0F69D044
S32D0000D180A2EB030280EA010C49024FEA402037D04FF0805343EA111143EA10130CF000408B4238BF5B0042F14E
S32D0000D1A87D024FF4000C8B4224BF5B1A40EA0C00B3EB510F24BFA3EB510340EA5C00B3EB910F24BFA3EB9103A4
S32D0000D1D040EA9C00B3EBD10F24BFA3EBD10340EADC001B0118BF5FEA1C1CE0D1FD2A3FF650AF8B4240EBC25018
S32D0000D1F808BF20F0010070470CF0004C4CEA50207F32C2BFD2F1FF0340EAC250704740F400004FF00003013AF1
S32D0000D22037E792F0000F00F0004C02BF400010F4000F013AF9D040EA0C0093F0000F01F0004C02BF490011F4C9
S32D0000D248000F013BF9D041EA0C0195E70CEAD15392EA0C0F08D142027FF47DAF93EA0C0F7FF470AF084676E7AE
S32D0000D27093EA0C0F04D14B023FF44CAF08466EE730F0004C18BF31F0004CCAD130F000427FF45CAF31F0004376
S32D0000D2987FF43CAF5FE700BF4FF0FF3C06E000BF4FF0010C02E000BF4FF0010C4DF804CD4FEA40024FEA41039F
S32D0000D2C07FEA226C18BF7FEA236C11D001B052EA530C18BF90EA010F58BFB2EB030088BFC81738BF6FEAE1706E
S32D0000D2E818BF40F0010070477FEA226C02D15FEA402C05D17FEA236CE4D15FEA412CE1D05DF8040B704700BF16
S32D0000D310844608466146FFE70FB5FFF7C9FF002848BF10F1000F0FBD4DF808EDFFF7F4FF0CBF012000205DF839
S32D0000D33808FB00BF4DF808EDFFF7EAFF34BF012000205DF808FB00BF4DF808EDFFF7E0FF94BF012000205DF8A9
S32D0000D36008FB00BF4DF808EDFFF7D2FF94BF012000205DF808FB00BF4DF808EDFFF7C8FF34BF012000205DF8B1
S32D0000D38808FB00BF4FEA4002B2F1FE4F0FD34FF09E03B3EB12620DD94FEA002343F0004310F0004F23FA02F060
S32D0000D3B018BF404270474FF00000704712F1610F01D1420205D110F0004008BF6FF0004070474FF00000704797
S32D0000D3D8B0B584B000AF78607868FFF767F904460D467868FFF762F902460B461046194657A3D3E90023FFF7E6
S32D0000D400BFF902460B4620462946FFF707F802460B4610461946FFF795FC034641F22810C1F6FF70194602F0E3
S32D0000D42803FA7B68C3F100031846FFF791FD034641F23010C1F6FF70194602F0F5F904F033FD02460B46104629
S32D0000D4501946FFF777FC0346FB602DE041F23C40C1F6FF7048F6F861C0F2010106F0B6FF41F25010C1F6FF70B1
S32D0000D47804F098FE034683F00103DBB2002B05D041F23010C1F6FF7002F07EF941F25410C1F6FF7004F086FE78
S32D0000D4A0034683F00103DBB2002B05D041F22810C1F6FF7002F06CF941F25010C1F6FF7004F074FE0346002B96
S32D0000D4C82DD141F25410C1F6FF7004F06BFE0346002B27D004F0E8FC04460D46F868FFF7F7F802460B462046FA
S32D0000D4F02946FEF791FF02460B464FF001010C46104619464FF000024FF0804303F50013FFF7A8FB0346002BDE
S32D0000D51802D14FF000031C46E3B2002B02D04FF0010301E04FF00003002B93D141F22810C1F6FF7002F028F943
S32D0000D54041F23010C1F6FF7002F022F907F11007BD46B0BDAFF300809A9999999999993FF0B583B000AFC7E9D0
S32D0000D568000141F21C10C1F6FF7005F0B1FA03461846FFF7ADF804460D46D7E900014FF000024FF07E5303F586
S32D0000D590C003FEF743FF02460B464FF001010E4620462946FFF75EFB0346002B02D14FF000031E46F3B2002B64
S32D0000D5B82AD041F21C10C1F6FF7005F089FA03461846FFF785F804460D46D7E900014FF000024FF07E5303F58D
S32D0000D5E0C003FEF719FF02460B464FF001010E4620462946FFF754FB0346002B02D14FF000031E46F3B2002B48
S32D0000D60802D04FF0010301E04FF00003184607F10C07BD46F0BD00BF98B500AF0DE041F21C10C1F6FF7005F081
S32D0000D63053FA034641F23C40C1F6FF70194606F0F5FE41F21C10C1F6FF7005F045FA03461846FFF741F8024642
S32D0000D6580B464FF001010C46104619461AA3D3E90023FFF719FB0346002B02D14FF000031C46E3B2002B1ED1CB
S32D0000D68041F21C10C1F6FF7005F026FA03461846FFF722F802460B464FF001010C46104619460DA3D3E90023BB
S32D0000D6A8FFF7DCFA0346002B02D14FF000031C46E3B2002B02D04FF0010301E04FF00003002BACD198BD00BFE9
S32D0000D6D06ABC74931804EA3F560E2DB29DEFC7BF90B5ADB002AF4FF000024FF0804303F51813C7E926234FF074
S32D0000D6F800024FF0804303F57E13C7E924234FF000024FF0804303F5B013C7E922234FF000024FF08043C7E99A
S32D0000D7202023EB4BFB67EB4BBB674FF016037B67E94B3B674FF01603FB664FF000024FF0804303F50C13C7E9D5
S32D0000D74818234FF00303FB65DBA3D3E90023C7E914234FF05003FB64DE4BBB644FF000024FF0804303F50C13FC
S32D0000D770C7E9102341F23C40C1F6FF7048F61471C0F2010106F02AFE00F006FD4FF000004FF00B014FF014026C
S32D0000D79801F04EFBD04801F03BF84FF041030093CE4B01934FF001004FF000024FF0804303F57E1301F040F9F4
S32D0000D7C0C74801F029F8C34800F08AFE4FF001004FF016014FF0140201F02EFBC14801F01BF84FF02A03009386
S32D0000D7E8BF4B01934FF001004FF000024FF0804303F5B01301F020F9B54800F031FD4FF000004FF017014FF03D
S32D0000D810140201F011FBB24800F0FEFF4FF02A030093B14B01934FF000004FF000024FF0804301F005F900F000
S32D0000D838D5FC4FF02A030093A94B01934FF001004FF000024FF0804303F5801301F0F4F84FF001004FF01601E9
S32D0000D8604FF0140201F0E8FA9E4800F0D5FF4FF02A0300939C4B01934FF000004FF000024FF0804303F5C01301
S32D0000D88801F0DAF84FF001004FF016014FF0140201F0CEFA934800F0BBFF41F23810C1F6FF70914905F018FD01
S32D0000D8B041F24410C1F6FF708E4905F011FD82A1D1E9000104F0C8FA4FF02A030093864B01934FF000004FF04D
S32D0000D8D800024FF0804303F50C1301F0ADF84FF000004FF003014FF0140201F0A1FA4FF02A0300937A4B0193B6
S32D0000D9004FF000006EA3D3E9002301F099F841F23810C1F6FF70784905F0E2FC6AA1D1E9000104F099FA41F293
S32D0000D9284410C1F6FF70714905F0D6FC4FF02A0300936B4B01934FF001004FF000024FF07E5303F5E00301F030
S32D0000D95077F841F24410C1F6FF70684905F0C0FC59A1D1E9000104F077FA4FF001004FF003014FF0140201F048
S32D0000D9785FFA4FF02A030093594B01934FF001004FF000024FF0804303F50C1301F054F84FF000004FF0160185
S32D0000D9A04FF0140201F048FA4E4800F035FF4FF02A0300934C4B01934FF001004FF000024FF0804303F5C0139F
S32D0000D9C801F03AF84FF000004FF009014FF0140201F02EFA4FF02A030093414B01934FF001004FF000024FF039
S32D0000D9F0804303F5041301F023F84FF001004FF009014FF0140201F017FA4FF02A00FFF7E3FC4FF01503009323
S32D0000DA18334B01934FF000004FF000024FF07E5303F5F00301F008F84FF001004FF016014FF0140201F0FCF991
S32D0000DA402A4800F0E9FE4FF000004FF07E5101F5C00104F001FA4FF02A030093224B01934FF000004FF00002FC
S32D0000DA684FF0804303F5181300F0E6FF4FF000004FF015014FF0140201F0DAF94FF05400FFF7A6FC41F2381043
S32D0000DA90C1F6FF70114905F023FC4FF000004FF07E5101F5C00104F0D7F941F24410C1F6FF70134905F014FCFE
S32D0000DAB824E000BFAFF30080CDCCCCCCCCCC0A409A9999999999D93F3333824200003842000096410000A0413D
S32D0000DAE00000B44200000000CDCCCC3C0000874300003143000070410000A04200000C43000070424FF0000070
S32D0000DB084FF07E5101F5C00104F0A2F94FF0010387F83F3097F83F3083F00103DBB2002B35D04FF0150300934E
S32D0000DB30E74B01934FF000004FF000024FF0804303F5041300F07CFF4FF000004FF07E5101F5C00104F080F994
S32D0000DB5841F23810C1F6FF70DC4905F0BDFB4FF000004FF07E5101F5C00104F071F941F24410C1F6FF70D649FE
S32D0000DB8005F0AEFB4FF000004FF07E5101F5C00104F062F96EE04FF015030093CF4B01934FF00000C2A3D3E940
S32D0000DBA8002300F049FF4FF000004FF07E5101F5C00104F04DF941F24410C1F6FF70C44905F08AFB4FF0000043
S32D0000DBD04FF07E5101F5C00104F03EF94FF015030093BB4B01934FF001004FF000024FF0804303F5002300F025
S32D0000DBF823FF4FF000004FF07E5101F5C00104F027F941F24410C1F6FF70B04905F064FB4FF000004FF07E517E
S32D0000DC2001F5C00104F018F94FF015030093AB4B01934FF000004FF000024FF0804303F5402300F0FDFE4FF09F
S32D0000DC4800004FF07E5101F5C00104F001F941F24410C1F6FF709E4905F03EFB4FF000004FF07E5101F5C00135
S32D0000DC7004F0F2F841F23810C1F6FF70984905F02FFB4FF001004FF001014FF0140201F0D3F84FF02A03009376
S32D0000DC988D4B01934FF001004FF000024FF0804303F5002300F0C8FE4FF001004FF003014FF0140201F0BCF821
S32D0000DCC04FF02A00FFF788FB4FF02A030093804B01934FF000004FF000024FF07E5303F5E00300F0ADFE4FF0B1
S32D0000DCE801004FF016014FF0140201F0A1F84FF02A030093744B01934FF001004FF000024FF0804303F50013F8
S32D0000DD1000F096FE4FF0010387F83E30714BBB634FF000024FF0804303F58203C7E90C2361A3D3E90023C7E925
S32D0000DD380A2361A3D3E90023C7E908234FF000024FF0804303F52C13C7E90623634800F0C3FB97F83E30002BFE
S32D0000DD606ED0614800F058FD4FF000004FF07E5101F5C00104F070F84FF02A030093544B01934FF001004FF058
S32D0000DD8800024FF0804303F5781300F055FE41F2A440C1F6FF7009F06BFE03461846FEF797FC02460B464FF0FD
S32D0000DDB001010C46104619463FA3D3E90023FEF76FFF0346002B02D14FF000031C46E3B2002B13D04FF001004A
S32D0000DDD84FF005014FF0140201F02AF8414800F03FFA4FF000004FF005014FF0140201F01FF812E04FF00000AC
S32D0000DE004FF005014FF0140201F016F8374800F02BFA4FF001004FF005014FF0140201F00BF8314800F0F8FC9C
S32D0000DE284FF000004FF07E5101F5C00104F010F82D4800F051FB19E02C4800F0E9FC4FF000004FF07E5101F596
S32D0000DE50C00104F001F84FF02A0300931C4B01934FF000004FF000024FF0804303F5820300F0E6FD1E4800F0D4
S32D0000DE7833FB4FF0000387F8A73011A1D1E90001FFF76AFB0346002B32D04FF0010387F8A73041F23C40C1F679
S32D0000DEA0FF7048F62C71C0F2010106F097FA2DE0AAAAAAAAAAAA20401F85EB51B81E3D40CDCCCCCCCC4C384072
S32D0000DEC8D578E9263108D43FCDCCCC3C0000704200002A43CDCC4C3D000070410000564200008743C3F5E841AE
S32D0000DEF0000058410000B44241F23C40C1F6FF7048F64071C0F2010106F068FA97F8A730002B64D04FF000029F
S32D0000DF184FF0804303F5A013C7E904234FF001004FF016014FF0140200F082FF5E4800F06FFC4FF000004FF07C
S32D0000DF407E5101F5C00103F087FF4FF015030093584B01934FF000004FF000024FF0804303F5A01300F06CFD0D
S32D0000DF68534800F07DF94FF000004FF016014FF0140200F05DFF4F4800F04AFC4FF000004FF07E5101F5C00183
S32D0000DF9003F062FF4FF0180300934FF000004FF000024FF0804303F5002301F055F84FF000004FF0804101F512
S32D0000DFB8A01103F04DFF4FF02A0300933B4B01934FF001004FF000024FF07E5303F5C00300F032FD36E04FF072
S32D0000DFE001004FF02C014FF0140200F025FF334800F012FC4FF000004FF07E5101F5C00103F02AFF4FF018034A
S32D0000E00800934FF000004FF000024FF0804303F5002301F01DF84FF000004FF0804101F5A01103F015FF4FF088
S32D0000E0302A0300931F4B01934FF001004FF000024FF07E5303F5C00300F0FAFC4FF00B03FB604FF000024FF0AA
S32D0000E058804303F5F013C7E900234FF000004FF016014FF02A0200F0E3FE4FF02A0300930E4B01934FF001000C
S32D0000E0804FF000024FF0804303F5F01300F0D8FC4FF000004FF00B014FF0140200F0CCFE4FF02A00FFF798F9E7
S32D0000E0A807F1AC07BD4690BD00000000CDCCCC3C6666C2410000B44280B500AF41F23810C1F6FF7040F2013100
S32D0000E0D005F0C8F841F23810C1F6FF704FF41B6105F0DEF841F24410C1F6FF7040F29E2105F0B8F841F2441078
S32D0000E0F8C1F6FF7040F6421105F0CEF880BD00BF80B582B000AF41F23C40C1F6FF7048F65471C0F2010106F0FC
S32D0000E1205DF900BF07F104023B4641F23C40C1F6FF7011461A4605F03BFF034683F00103DBB2002BEED100BF8C
S32D0000E14807F104023B4641F23C40C1F6FF7011461A4605F029FF0346002BF1D107F10807BD4680BD80B500AF20
S32D0000E17041F23810C1F6FF70054905F0B1F841F24410C1F6FF70034905F0AAF880BD00BF000000000000254300
S32D0000E19880B500AFFFF790FFFFF7E4FF41F23C40C1F6FF7048F69071C0F2010106F012F941F23C40C1F6FF7079
S32D0000E1C048F6B871C0F2010106F008F9FFF79CFF41F2A440C1F6FF7008F07EFFFFF720FA80BD00BF80B582B069
S32D0000E1E800AF4FF000024FF07E5303F5F003C7E9002341F23810C1F6FF70164905F06CF84FF000004FF07E51A5
S32D0000E21001F5F00103F020FE41F24410C1F6FF700F4905F05DF84FF000004FF07E5101F5F00103F011FE41F230
S32D0000E2383810C1F6FF70094905F04EF84FF000004FF07E5101F5F00103F002FE07F10807BD4680BD00003143DB
S32D0000E2600000704200006442B0B584B002AF7860C3E041F2A440C1F6FF7009F01DFC03464FF0010214461846E1
S32D0000E2888F49FFF775F80346002B02D14FF000031C46E3B2002B19D041F2A440C1F6FF7009F006FC03464FF0D9
S32D0000E2B00102144618468549FFF740F80346002B02D14FF000031C46E3B2002B02D04FF0010301E04FF00003A6
S32D0000E2D8002B47D041F2A440C1F6FF7009F0C8FB03464FF00102144618467968FFF740F80346002B02D14FF005
S32D0000E30000031C46E3B2002B0CD04FF00F0300936F4B01934FF0010069A3D3E9002300F08FFB6AE041F2A440B6
S32D0000E328C1F6FF7009F0A4FB03464FF00102144618467968FEF7FEFF0346002B02D14FF000031C46E3B2002B48
S32D0000E35053D04FF00F0300935D4B01934FF0000057A3D3E9002300F06BFB46E041F2A440C1F6FF7009F080FB17
S32D0000E37803464FF00102144618467968FEF7F8FF0346002B02D14FF000031C46E3B2002B0CD04FF00F030093FC
S32D0000E3A04B4B01934FF0000045A3D3E9002300F047FB22E041F2A440C1F6FF7009F05CFB03464FF00102144679
S32D0000E3C818467968FEF7B6FF0346002B02D14FF000031C46E3B2002B0BD04FF00F030093394B01934FF001007C
S32D0000E3F033A3D3E9002300F023FB41F2A440C1F6FF7009F039FB054678683249FEF7EEFC03464FF00102144668
S32D0000E41828461946FEF78EFF0346002B02D14FF000031C46E3B2002B37D141F2A440C1F6FF7009F01DFB05463B
S32D0000E44078682449FEF7D4FC03464FF00102144628461946FEF790FF0346002B02D14FF000031C46E3B2002BBB
S32D0000E4681ED041F2A440C1F6FF7009F021FB034618461749FEF754FF0346002B10D141F2A440C1F6FF7009F06C
S32D0000E49013FB034618461149FEF746FF0346002B02D14FF0010301E04FF00003002B7FF4E0AE07F10807BD4632
S32D0000E4B8B0BD00BFAFF30080F2B5679604A8C93F0000B44200008743CDCCCC3C0000803F000080BF000000C071
S32D0000E4E0B0B584B002AF7860C3E041F2A440C1F6FF7009F0E1FA03464FF00102144618468F49FEF739FF0346A7
S32D0000E508002B02D14FF000031C46E3B2002B19D041F2A440C1F6FF7009F0CAFA03464FF001021446184685498F
S32D0000E530FEF704FF0346002B02D14FF000031C46E3B2002B02D04FF0010301E04FF00003002B47D041F2A44089
S32D0000E558C1F6FF7009F09CFA03464FF00102144618467968FEF704FF0346002B02D14FF000031C46E3B2002B19
S32D0000E5800CD04FF00F0300936F4B01934FF0000069A3D3E9002300F053FA6AE041F2A440C1F6FF7009F078FA06
S32D0000E5A803464FF00102144618467968FEF7C2FE0346002B02D14FF000031C46E3B2002B53D04FF00F030093BA
S32D0000E5D05D4B01934FF0010057A3D3E9002300F02FFA46E041F2A440C1F6FF7009F054FA03464FF00102144620
S32D0000E5F818467968FEF7BCFE0346002B02D14FF000031C46E3B2002B0CD04FF00F0300934B4B01934FF0010032
S32D0000E62045A3D3E9002300F00BFA22E041F2A440C1F6FF7009F030FA03464FF00102144618467968FEF77AFE1D
S32D0000E6480346002B02D14FF000031C46E3B2002B0BD04FF00F030093394B01934FF0000033A3D3E9002300F03E
S32D0000E670E7F941F2A440C1F6FF7009F00DFA054678683249FEF7B2FB03464FF00102144628461946FEF752FE20
S32D0000E6980346002B02D14FF000031C46E3B2002B37D141F2A440C1F6FF7009F0F1F9054678682449FEF798FB61
S32D0000E6C003464FF00102144628461946FEF754FE0346002B02D14FF000031C46E3B2002B1ED041F2A440C1F6CC
S32D0000E6E8FF7009F0E5F9034618461749FEF718FE0346002B10D141F2A440C1F6FF7009F0D7F903461846114950
S32D0000E710FEF70AFE0346002B02D14FF0010301E04FF00003002B7FF4E0AE07F10807BD46B0BD00BFAFF30080AD
S32D0000E738F2B5679604A8C93F0000000000003443CDCCCC3C0000803F000080BF000000C098B500AF41F2A44072
S32D0000E760C1F6FF7009F0A8F9034618462749FEF7DBFD0346002B10D141F2A440C1F6FF7009F09AF90346184622
S32D0000E7882149FEF7CDFD0346002B02D14FF0010301E04FF00003002B02D04FF001032FE041F2A440C1F6FF7001
S32D0000E7B009F082F903464FF00102144618461349FEF7B2FD0346002B02D14FF000031C46E3B2002B0CD041F2CA
S32D0000E7D83C40C1F6FF7049F22C01C0F2010105F0F9FD4FF000030BE041F23C40C1F6FF7049F23C01C0F201013C
S32D0000E80005F0ECFD4FF00003184698BD000080BF000000C000000000B0B584B000AF786003F046FB02460B462B
S32D0000E82810461946FEF78AFA0346FB608DE041F2A440C1F6FF7009F03BF903464FF00102144618467968FEF700
S32D0000E85093FD0346002B02D14FF000031C46E3B2002B2DD041F2A440C1F6FF7009F024F9034618467968FEF792
S32D0000E878B9FA03464FF00102144618466C49FEF763FD0346002B02D14FF000031C46E3B2002B08D04FF00100AF
S32D0000E8A04FF001014FF00F0200F0C6FA4CE04FF000004FF001014FF00F0200F0BDFA43E041F2A440C1F6FF7006
S32D0000E8C809F0F6F803464FF00102144618467968FEF730FD0346002B02D14FF000031C46E3B2002B2CD041F21B
S32D0000E8F0A440C1F6FF7009F0DFF8034678681946FEF774FA03464FF00102144618464A49FEF71EFD0346002BDB
S32D0000E91802D14FF000031C46E3B2002B08D04FF000004FF001014FF00F0200F081FA07E04FF001004FF001011F
S32D0000E9404FF00F0200F078FA39A1D1E9000103F083FA41F2A440C1F6FF7009F0ADF8054678683649FEF744FA3A
S32D0000E96803464FF00102144628461946FEF700FD0346002B02D14FF000031C46E3B2002B45D141F2A440C1F64E
S32D0000E990FF7009F091F8054678682849FEF726FA03464FF00102144628461946FEF7C6FC0346002B02D14FF0C8
S32D0000E9B800031C46E3B2002B2CD0FFF7C9FE0346002B27D003F070FA04460D46F868FDF77FFE02460B4620461E
S32D0000E9E02946FDF719FD02460B464FF001010C46104619464FF000024FF0804303F50013FEF730F90346002BCF
S32D0000EA0802D14FF000031C46E3B2002B02D04FF0010301E04FF00003002B7FF408AF07F11007BD46B0BD00BFDE
S32D0000EA30666666666666E63F0000344300008040B0B58EB000AF0146C7E900230B46FB7341F22410C1F6FF7040
S32D0000EA5804F018F841F22010C1F6FF7004F012F841F23C40C1F6FF7049F28801C0F2010105F0B0FC41F23C4068
S32D0000EA80C1F6FF70D7E9002305F07CFC41F23C40C1F6FF7049F29801C0F2010105F0BCFB4FF000024FF0000366
S32D0000EAA8C7E90C234FF000024FF00003C7E90A23FB7B002B23D0B86CFEF74AFA0446B86CFEF746FA03461846C6
S32D0000EAD0F96CFEF795FA034620461946FEF788F903461846FDF7F8FD02460B46C7E90C23BB6CC3F10003184667
S32D0000EAF8FDF7DCFD02460B46C7E90A2321E0B86CFEF726FA0446B86CFEF722FA03461846F96CFEF771FA03463F
S32D0000EB2020461946FEF764F9034683F000431846FDF7D2FD02460B46C7E90C23B86CFDF7B9FD02460B46C7E901
S32D0000EB480A23D7E90C01FEF7F9F8034641F22810C1F6FF70194600F067FED7E90A01FEF7EDF8034641F23010D0
S32D0000EB70C1F6FF70194600F05BFED7E90001ACA3D3E90023FDF7FCFD02460B46C7E9082303F08EF902460B4646
S32D0000EB9810461946FEF7D2F80346FB6178E041F23C40C1F6FF7049F2A001C0F2010105F011FC41F22010C1F65D
S32D0000EBC0FF7003F04FFF034641F23C40C1F6FF70194605F04FFB41F23C40C1F6FF7049F2A401C0F2010105F05D
S32D0000EBE8F9FB41F22410C1F6FF7003F037FF034641F23C40C1F6FF70194605F0FFFB41F23C40C1F6FF7049F2D9
S32D0000EC10A801C0F2010105F0E1FB41F22010C1F6FF7003F01FFF044641F22410C1F6FF7003F018FF0346E31AE7
S32D0000EC38BB61BA694AF6AB23C2F6AA2383FB02134FEAE3014FEAE273CB1A1846FDF72EFD02460B4610461946EE
S32D0000EC60D7E90A23FDF78CFD02460B46C7E90423D7E90A01D7E90423FDF7D0FB02460B4610461946FEF75EF8A2
S32D0000EC88034641F23010C1F6FF70194600F0CCFD41F22010C1F6FF7003F0E0FE044641F22410C1F6FF7003F040
S32D0000ECB0D9FE0346E3181846FDF7FCFC02460B46104619464FF000024FF08043FDF782FE02460B464FF00101F2
S32D0000ECD80C4610461946D7E90823FDF7BFFF0346002B02D14FF000031C46E3B2002B27D003F0DAF804460D4666
S32D0000ED00F869FDF7E9FC02460B4620462946FDF783FB02460B464FF001010C46104619464FF000024FF08043A7
S32D0000ED2803F50013FDF79AFF0346002B02D14FF000031C46E3B2002B02D04FF0010301E04FF00003002B7FF4A4
S32D0000ED502AAF41F23010C1F6FF7000F019FD41F22810C1F6FF7000F013FD41F23C40C1F6FF7005F041F841F256
S32D0000ED783C40C1F6FF7049F2AC01C0F2010105F047FA41F23C40C1F6FF70D7E9002305F0F5FA41F23C40C1F6F7
S32D0000EDA0FF7049F29801C0F2010105F017FB41F23C40C1F6FF7049F2B801C0F2010105F00DFB41F23C40C1F667
S32D0000EDC8FF7049F2D001C0F2010105F021FA41F22010C1F6FF7003F041FE034641F23C40C1F6FF70194605F0B1
S32D0000EDF009FB41F23C40C1F6FF7049F2E401C0F2010105F009FA41F22410C1F6FF7003F029FE034641F23C40B1
S32D0000EE18C1F6FF70194605F0F1FA07F13807BD46B0BD00BFAFF30080D22CA826C3F41340F0B58BB000AF034631
S32D0000EE40B9607A60FB7341F22410C1F6FF7003F01DFE41F22010C1F6FF7003F017FE41F23C40C1F6FF7049F207
S32D0000EE68F801C0F2010105F0B5FA4FF000024FF00003C7E908234FF000024FF00003C7E90623FB7B002B28D0D8
S32D0000EE907868FDF70FFC04460D467868FDF70AFC02460B461046194669A3D3E90023FDF767FC02460B4620466F
S32D0000EEB82946FDF7AFFA02460B461146396283F000437B627B68C3F100031846FDF7EEFB02460B46C7E90623BB
S32D0000EEE021E07868FDF7E6FB04460D467868FDF7E1FB02460B461046194655A3D3E90023FDF73EFC02460B4615
S32D0000EF0820462946FDF786FA02460B46C7E908237868FDF7CBFB02460B46C7E90623D7E90801FDF70BFF034602
S32D0000EF3041F22810C1F6FF70194600F079FCD7E90601FDF7FFFE034641F23010C1F6FF70194600F06DFC02F01A
S32D0000EF58ABFF02460B4610461946FDF7EFFE03467B6100BF41F22010C1F6FF7003F076FD044641F22410C1F677
S32D0000EF80FF7003F06FFD0346E3181846FDF792FB02460B46104619464FF000024FF08043FDF718FD02460B463F
S32D0000EFA814461D46B868FDF781FB02460B464FF001010E4620462946FDF750FE0346002B02D14FF000031E46BC
S32D0000EFD0F3B2002B27D002F06BFF04460D467869FDF77AFB02460B4620462946FDF714FA02460B464FF00101BF
S32D0000EFF80C46104619464FF000024FF0804303F50013FDF72BFE0346002B02D14FF000031C46E3B2002B02D0FC
S32D0000F0204FF0010301E04FF00003002B9ED141F22810C1F6FF7000F0ABFB41F23010C1F6FF7000F0A5FB07F17A
S32D0000F0482C07BD46F0BD00BF9A9999999999993FB0B588B000AF0146C7E900230B46FB7341F23C40C1F6FF708F
S32D0000F07049F21811C0F2010105F0B0F941F23C40C1F6FF70D7E9002305F07CF941F23C40C1F6FF7049F2281151
S32D0000F098C0F2010105F0BCF84FF000024FF00003C7E906234FF000024FF00003C7E90423FB7B002B25D0386BFE
S32D0000F0C0FDF7F8FA04460D46386BFDF7F3FA02460B461046194636A3D3E90023FDF750FB02460B462046294668
S32D0000F0E8FDF798F902460B46C7E906233B6BC3F100031846FDF7DAFA02460B46C7E9042324E0386BFDF7D2FAA9
S32D0000F11004460D46386BFDF7CDFA02460B461046194623A3D3E90023FDF72AFB02460B4620462946FDF772F9FD
S32D0000F13802460B461146B96183F00043FB61386BFDF7B4FA02460B46C7E90423D7E90601FDF7F4FD034641F2B0
S32D0000F1602810C1F6FF70194600F062FBD7E90401FDF7E8FD034641F23010C1F6FF70194600F056FBD7E9000196
S32D0000F18802F066FE41F22810C1F6FF7000F0FCFA41F23010C1F6FF7000F0F6FA07F12007BD46B0BDAFF3008062
S32D0000F1B09A9999999999993F80B500AFFEF790FA4FF00003184680BD80B582B000AF786039607B68012B4ED1CD
S32D0000F1D83A684FF6FF739A4249D141F21C10C1F6FF704FF0000103F061FC41F22010C1F6FF704FF00F0103F0DA
S32D0000F20079F841F22410C1F6FF704FF0080103F071F841F22810C1F6FF704FF00001184A00F05EFA41F2301050
S32D0000F228C1F6FF704FF00101134A00F055FA41F23810C1F6FF704FF0070103F0F1FF41F24410C1F6FF704FF0FE
S32D0000F250000103F0E9FF41F25010C1F6FF704FF01F0102F07FFE41F25410C1F6FF704FF0180102F077FE07F1B9
S32D0000F2780807BD4680BD00BF0000104180B500AF4FF001004FF6FF71FFF79AFF80BD00BF80B500AF41F2087214
S32D0000F2A0C1F6FF7241F21C13C1F6FF73D31A194641F21C13C1F6FF731A460B4610464FF000011A4608F08DFD8D
S32D0000F2C880BD00BF09F002FE00F0B0F9FFF7E0FF09F0D4FD09F070FD09F008FE00F00CF84FF0000041F25811B7
S32D0000F2F0C1F6FF71FFF760FF0346184608F04CFD80B500AF4FF4E043C4F204034FF4E042C4F2040202F580529B
S32D0000F31802F13802126842F4785203F5805303F138031A6000F02EF900F094F841F28833C1F6FF734FF0580269
S32D0000F3401A6041F28833C1F6FF731B684FF47A7202FB03F241F28433C1F6FF731A6041F28433C1F6FF731B6847
S32D0000F3681A464FF4E043C4F2040303F5825303F104031B6803F070634FEA136303F10103B2FBF3F31A4641F216
S32D0000F3908C33C1F6FF731A604FF4E043C4F204034FF4E042C4F2040202F5805202F13C02126842F0225203F597
S32D0000F3B8805303F13C031A604FF4E043C4F204034FF4E042C4F2040202F5805202F13002126842F0006203F56F
S32D0000F3E0805303F130031A604FF45043C4F203034FF480721A614FF0640002F0A5FB4FF45043C4F203034FF43F
S32D0000F4085042C4F20302526922F010025A614FF45043C4F203034FF000021A604FF45043C4F203034FF01002BF
S32D0000F4305A6103F083FC03F02BFD41F28030C1F6FF7002F005FC41F23C40C1F6FF7004F00BFB41F2883002F0BE
S32D0000F458E3FC80BD80B400AF4FF48043C4F206034FF000025A704FF48043C4F206034FF098021A704FF4804389
S32D0000F480C4F206039B79DBB203F01003002B0CBF00230123DBB2002BF0D14FF48043C4F206039B79DBB203F0E9
S32D0000F4A80C034FEA9303022B0CBF00230123DBB2002BEED14FF48043C4F206034FF018021A714FF48043C4F23D
S32D0000F4D006034FF000025A714FF4E043C4F2040303F5825303F104034FF00002C0F213121A604FF48043C4F2C0
S32D0000F4F806034FF054025A7100BF4FF48043C4F206039B79DBB203F02003002B14BF00230123DBB2002BF0D184
S32D0000F52000BF4FF48043C4F206039B79DBB203F04003002B14BF00230123DBB2002BF0D14FF48043C4F20603DF
S32D0000F5484FF48042C4F206021278D2B202F03F02D2B21A704FF48043C4F206039B79DBB203F00C034FEA93034C
S32D0000F570032B0CBF00230123DBB2002BEED14FF000031846BD4680BC704700BF80B400AF4FF44043C4F20403FB
S32D0000F5984FF480725A634FF2C003C4F20F034FF2C002C4F20F02526942F400525A614FF2C003C4F20F034FF2B2
S32D0000F5C0C002C4F20F02126842F400521A604FF44043C4F2040340F20312C0F20A021A634FF46143CEF2000369
S32D0000F5E84FF46142CEF20002D2F8882142F08062C3F888214FF46143CEF200034FF46142CEF20002926842F0E4
S32D0000F61080629A60BD4680BC704700BF80B483B000AF7860FEE700BF80B400AF00BEBD4680BC704780B400AF2F
S32D0000F6384FF0E0224CF20003C0F20003C2F8083D4FF40053C4F205034CF22052DA814FF40053C4F205034DF678
S32D0000F6602812DA814FF40053C4F205034FF0D2021A80BD4680BC704780B500AF4FF44043C4F20403D3F8A030EE
S32D0000F68803F48053002B0CBF00230123DBB2002B1FD04FF44043C4F204034FF44042C4F20402D2F8A02022F402
S32D0000F6B08052C3F8A02041F2C440C1F6FF7008F0F1FA4FF2C003C4F20F034FF2C002C4F20F02126822F4005227
S32D0000F6D81A6080BD0000000090B585B000AFF8600B467A60FB72FB68FA7A1A71FB684FF000025A714FF0010320
S32D0000F7001C4678682049FDF737FE0346002B02D14FF000031C46E3B2002B02D01A4B7B6011E04FF001031C46B4
S32D0000F72878681849FDF710FE0346002B02D14FF000031C46E3B2002B01D0124B7B607868FCF7C6FF02460B468B
S32D0000F750104619460AA3D3E90023FDF711F802460B4610461946FDF7EDFA0246FB681A60FB68184607F114072B
S32D0000F778BD4690BDAFF30080ABAAAAAAAAAA2040000040410000803F80B582B000AF78607B685B79002B10D0A4
S32D0000F7A07B684FF000025A717B681B7941F28030C1F6FF7019464FF000024FF01E0302F091FA07F10807BD4645
S32D0000F7C880BD00BF80B584B000AF786039603B687F2B03DD4FF07F03FB7309E03B6813F1800F03DA4FF0800374
S32D0000F7F0FB7301E03B68FB737B685B79FA7B9A420FD07B68FA7B5A717B681A79FB7B41F28030C1F6FF70114635
S32D0000F8181A464FF01E0302F061FA07F11007BD4680BD00BF00000000B0B584B000AF786039604FF001031C4649
S32D0000F84038684D49FDF77AFD0346002B02D14FF000031C46E3B2002B02D0474B3B6011E04FF001031C46386819
S32D0000F8684449FDF785FD0346002B02D14FF000031C46E3B2002B01D03E4B3B603868FCF727FF04460D467B6896
S32D0000F8901B681846FCF720FF02460B46104619464FF000024FF0804303F5B203FDF792F802460B46204629462D
S32D0000F8B8FCF762FF02460B4610461946FDF73EFA03463B604FF001031C4638682A49FDF745FD0346002B02D13B
S32D0000F8E04FF000031C46E3B2002B14D03868FCF7F3FE02460B46104619461DA3D3E90023FCF73EFF02460B4678
S32D0000F90810461946FDF7D2F90346FB6022E03868FCF7DEFE02460B46104619464FF000024FF0804303F5C003FC
S32D0000F930FCF726FF02460B46104619464FF000024FF0804303F5B203FDF744F802460B4610461946FDF7AEF93A
S32D0000F9580346FB607868F968FFF734FF07F11007BD46B0BDAFF3008052B81E85EB51F43F0000C8C20000C84222
S32D0000F98000000000AFF3008080B485B000AF02460B46FA71BB71BB79002B07D141F25C13C1F6FF734FF00002AC
S32D0000F9A81A7006E041F25C13C1F6FF734FF001021A704FF03803FB7341F25C13C1F6FF731A78FB7B1343FB73AB
S32D0000F9D04FF4C043C4F206034FF4C042C4F206029278D2B242F01002D2B29A704FF4C043C4F206034FF4C04257
S32D0000F9F8C4F206029278D2B242F02002D2B29A704FF4C043C4F20603FA7B1A7107F11407BD4680BC704700BFE6
S32D0000FA2080B483B000AF4FF001037B6004E000BF7B6803F101037B607B68312BCCBF00230123DBB2002BF2D19F
S32D0000FA4807F10C07BD4680BC704700BF80B582B000AF02460B46FA71BB7141F25D13C1F6FF731B7818464FF08E
S32D0000FA700001FFF789FF4FF4C043C4F20603DB78DBB203F00203002B14BF00230123DBB2002BF0D14FF4C04308
S32D0000FA98C4F206034FF4C042C4F20602D278D2B242F00202D2B2DA704FF4C043C4F20603FA791A714FF4C04363
S32D0000FAC0C4F20603DB78DBB203F00203002B14BF00230123DBB2002BF0D14FF4C043C4F206034FF4C042C4F2C3
S32D0000FAE80602D278D2B242F00202D2B2DA704FF4C043C4F20603BA791A714FF4C043C4F20603DB78DBB203F07B
S32D0000FB100203002B14BF00230123DBB2002BF0D14FF4C043C4F206034FF4C042C4F20602D278D2B242F00202F8
S32D0000FB38D2B2DA704FF4C043C4F206034FF4C042C4F206029278D2B222F02002D2B29A704FF4C043C4F2060374
S32D0000FB604FF4C042C4F206029278D2B222F01002D2B29A70FFF754FF07F10807BD4680BD80B582B000AF034645
S32D0000FB88FB71FB79184600F06BF807F10807BD4680BD00BF80B582B000AF02460B46FA71BB7100F039F8FB79DD
S32D0000FBB04FEA4303DBB21846FFF7E2FFBB791846FFF7DEFF00F03EF807F10807BD4680BD80B500AF4FF0FF00F2
S32D0000FBD800F046F80346184680BD00BF80B584B000AF0346FB7100F017F8FB794FEA4303DBB243F00103DBB21E
S32D0000FC00DBB21846FFF7BCFFFFF7E2FF0346FB7300F018F8FB7B184607F11007BD4680BD80B400AF4FF2400322
S32D0000FC28C4F20F034FF24002C4F20F02926842F480129A60BD4680BC704700BF80B400AF4FF24003C4F20F03FC
S32D0000FC504FF24002C4F20F02526842F480125A60BD4680BC704700BF80B485B000AF0346FB714FF00003BB730E
S32D0000FC7803E0FB7B03F10103FB734FF44043C4F20A03DB6A4FF00003002BF2D14FF44043C4F20A034FF4404253
S32D0000FCA0C4F20A02D26A42F00042DA624FF44043C4F20A03FA795A6300BF4FF44043C4F20A03DB6A03F4003318
S32D0000FCC8002B14BF00230123DBB2002BF1D14FF44043C4F20A039B6BBB73BB7B184607F11407BD4680BC7047F5
S32D0000FCF080B582B000AF4FF4E043C4F204034FF4E042C4F2040202F5805202F13002126842F4805203F5805351
S32D0000FD1803F130031A604FF42043C4F204034FF480721A654FF24003C4F20F034FF24002C4F20F02526942F47E
S32D0000FD4080125A61FFF77EFF4FF42043C4F204034FF400725A654FF42043C4F204034FF400729A654FF4204341
S32D0000FD68C4F204034FF40072DA654FF44043C4F20A034FF44062C8F200021A604FF44043C4F20A034FF0050249
S32D0000FD90C3F60062DA604FF000037B6007E04FF0FF00FFF7EDFE7B6803F101037B607B68092BCCBF002301232E
S32D0000FDB8DBB2002BEFD104A1D1E9000102F048F807F10807BD4680BD9A9999999999B93F90B486B000AFF860BC
S32D0000FDE0B9607A60FA684FF42043C4F206039A4214D14FF4E043C4F204034FF4E042C4F2040202F5805202F17A
S32D0000FE083402126842F4806203F5805303F134031A6083E0FA684FF43043C4F206039A4214D14FF4E043C4F27D
S32D0000FE3004034FF4E042C4F2040202F5805202F13402126842F4006203F5805303F134031A6067E0FA684FF41C
S32D0000FE584043C4F206039A4214D14FF4E043C4F204034FF4E042C4F2040202F5805202F13402126842F48052C1
S32D0000FE8003F5805303F134031A604BE0FA684FF45043C4F206039A4214D14FF4E043C4F204034FF4E042C4F2C3
S32D0000FEA8040202F5805202F13402126842F4005203F5805303F134031A602FE0FA684FF42043C4F20E039A4208
S32D0000FED014D14FF4E043C4F204034FF4E042C4F2040202F5805202F12802126842F4806203F5805303F1280379
S32D0000FEF81A6013E04FF4E043C4F204034FF4E042C4F2040202F5805202F12802126842F4006203F5805303F174
S32D0000FF2028031A60FB68DB78DBB223F00C03DAB2FB68DA70FB684FF000029A70BB684FF47A7202FB03F27B689B
S32D0000FF484FEA031392FBF3F39CB2FB681B78DBB223F01F03FB75234603F4F8534FEA2323DBB203F01F03DAB2FB
S32D0000FF70FB7D1343DAB2FB681A70E2B2FB685A70BB684FF4FA4202FB03F27B684FEA031392FBF3F39AB223466D
S32D0000FF9819464FEAC121CB1A4FEA43139BB2D3189CB2FB689B7ADBB223F01F03FB75E3B203F01F03DAB2FB7D6F
S32D0000FFC01343DAB2FB689A72FB68DB78DBB243F00C03DAB2FB68DA7007F11807BD4690BC704700BF80B483B0C1
S32D0000FFE800AF786000BF7B681B79DBB203F02003002B14BF00230123DBB2002BF3D17B68DB79DBB2184607F1B0
S32D000100100C07BD4680BC704780B483B000AF78600B46FB7000BF7B681B79DBB2DBB26FEA0303DBB24FEAD313B3
S32D00010038DBB2002BF3D17B68FA78DA7107F10C07BD4680BC704700BF80B487B000AFF860B9607A60FB687B6119
S32D0001006007E0BB68DAB27B691A707B6903F101037B617B68002B0CBF00230123DBB27A6802F1FF327A60002BFD
S32D00010088EBD107F11C07BD4680BC704780B584B000AF786039607B681B6BFB60FA683B689A4264D07B681B79A3
S32D000100B0002B43D07B685A787B6803F1340310461946FA684FF0010301F0ACFB0346002B0CBF00230123DBB21B
S32D000100D8002B02D04FF001034BE07B684FF000021A717B685A6A7B681B6AD218FB689A4220D97B68DB78FB720B
S32D0001010014E07B681B6AFA68D318FB607B685A787B6803F1340310461946FA684FF0010301F080FBFB7A03F1DA
S32D00010128FF33FB72FB7A012B94BF00230123DBB2002BE2D13B68002B19D07B685A787B6803F134031046194634
S32D000101503A684FF0010301F057FA0346002B0CBF00230123DBB2002B02D04FF0010304E07B683A681A634FF0E1
S32D000101780003184607F11007BD4680BD80B584B000AF786078684FF00001FFF77FFF0346FB73FB7B002B40F09C
S32D000101A0AE807B681B78032B40F095807B685B79002B00F090807B684FF000021A637B6803F1340318464FF0EB
S32D000101C800014FF40072FFF73FFF7B684FF0550283F832227B684FF0AA0283F833227B684FF0520283F83420F3
S32D000101F07B684FF0520283F835207B684FF0610283F836207B684FF0410283F837207B684FF0720283F81822C2
S32D000102187B684FF0720283F819227B684FF0410283F81A227B684FF0610283F81B227B681B69DAB27B6883F8C1
S32D000102401C227B681B699BB24FEA2323DAB27B6883F81D227B681B694FEA1343DAB27B6883F81E227B681B696E
S32D000102684FEA1363DAB27B6883F81F227B68DB68DAB27B6883F820227B68DB689BB24FEA2323DAB27B6883F85F
S32D0001029021227B68DB684FEA1343DAB27B6883F822227B68DB684FEA1363DAB27B6883F823227B6859787B687E
S32D000102B803F134027B685B69084611461A464FF0010301F0ABFA7B684FF000025A717B685B7818464FF0000125
S32D000102E04FF0000201F084FB0346002B0CBF00230123DBB2002B02D04FF00103FB73FB7B184607F11007BD4697
S32D0001030880BD00BF80B582B000AF78600B467B807B68002B08D07B681B78002B04D07B68DB887A889A4202D03F
S32D000103304FF009030FE07B685B78184601F0ECFB034603F00103DBB2002B02D04FF0030301E04FF000031846E8
S32D0001035807F10807BD4680BD80B586B000AF78607B681A687B689B8810461946FFF7CAFF0346FB75FB7D002B02
S32D0001038040F0C8807B689B7903F02003002B00F0C1807B689B7903F04003002B20D07B681B6859787B6803F117
S32D000103A828027B689B69084611461A464FF0010301F034FA0346002B0CBF00230123DBB2002B02D04FF001035B
S32D000103D0A1E07B689B7923F04003DAB27B689A717B681A687B68DB6910461946FFF752FE0346FB75FB7D002BD3
S32D000103F840F08C807B681B6A3B613B6903F10B033A6902F10B02127842F02002D2B21A703B6903F11C037A68C8
S32D00010420D268D2B21A703B6903F11D037A68D26892B24FEA2222D2B21A703B6903F11E037A68D2684FEA124260
S32D00010448D2B21A703B6903F11F037A68D2684FEA1262D2B21A703B6903F11A037A681269D2B21A703B6903F12E
S32D000104701B037A68126992B24FEA2222D2B21A703B6903F114037A6812694FEA1242D2B21A703B6903F11503BC
S32D000104987A6812694FEA124292B24FEA2222D2B21A704FF00003FB603B6903F11603FA68D2B21A703B6903F126
S32D000104C01703FA6892B24FEA2222D2B21A703B6903F11803FA684FEA1242D2B21A703B6903F11903FA684FEAC3
S32D000104E81262D2B21A707B689B7923F02003DAB27B689A717B681B684FF001021A717B681B681846FFF73AFE97
S32D000105100346FB75FB7D184607F11807BD4680BD80B584B000AF78607868FFF719FF0346FB73FB7B002B03D1CC
S32D000105387B684FF000021A60FB7B184607F11007BD4680BD80B588B000AF786039604FF080033B614FF00F0397
S32D00010560FB604FF0FF337B614FF00203FB612AE04FF00103BB611AE0FB69BA6902FB03F33A6802FB03F27B68D0
S32D00010588D31ABB60BB68002B09DBBA687B699A4205D2BB687B61FB693B61BB69FB60BB6903F10103BB61BB6977
S32D000105B0102B8CBF00230123DBB2002BDCD1FB694FEA4303FB61FB69B3F5807F8CBF00230123DBB2002BCBD1BA
S32D000105D84FF48053C4F20B034FF48052C4F20B02D26A22F00802DA624FF48053C4F20B03DB6A1A464FF00F03DE
S32D00010600CFF6F0731340BB614FF48053C4F20B033A694FEA52024FEA02224FEA02424FEA1242F96801F1FF3140
S32D000106284FEA0111C9B21143BA690A4342F46022DA6203E04FF00A0001F0EEFB4FF48053C4F20B035B6A03F08D
S32D000106500803002B14BF00230123DBB2002BEDD14FF48053C4F20B034FF48052C4F20B02D26A42F00802DA624F
S32D000106784FF48053C4F20B034FF48052C4F20B02126B42F480121A6307F12007BD4680BD80B582B000AF786092
S32D000106A039607B684FF000021A604FF48053C4F20B034FF40042C0F20012DA624FF48053C4F20B03DB6A03F083
S32D000106C88073002B0CBF00230123DBB2002BF1D14FF48053C4F20B034FF00002C3F8C0204FF48053C4F20B03C9
S32D000106F04FF481325A604FF48053C4F20B034FF028029A624FF48053C4F20B034FF001125A643B689B681846FE
S32D000107184CF66041C0F20501FFF714FF4FF48053C4F20B035B6A03F00303002B0CBF00230123DBB2002BF1D1BF
S32D000107404FF45043C4F2040340F243421A604FF45043C4F2040340F243425A604FF45043C4F204034FF4886202
S32D000107689A604FF45043C4F2040340F24342DA604FF45043C4F2040340F243421A614FF45043C4F2040340F25A
S32D0001079043425A614FF4E043C4F204034FF4E042C4F2040202F5805202F13002126842F4003203F5805303F127
S32D000107B830031A604FF48053C4F20B034FF6FF721A634FF48053C4F20B034FF0B302C0F27F025A634FF4805384
S32D000107E0C4F20B034FF48052C4F20B02D26A42F00062DA624FF48053C4F20B03DB6A03F00063002B0CBF0023B4
S32D000108080123DBB2002BF1D14FF48053C4F20B035B6A03F48033002B0CBF00230123DBB2002B03D07B684FF0F0
S32D0001083001021A604FF48053C4F20B034FF48052C4F20B02126B42F080021A634FF00003184607F10807BD4612
S32D0001085880BD00BF80B400AF4FF48053C4F20B035B6A1A4640F207331340002B0CBF00230123DBB21846BD46A9
S32D0001088080BC704780B485B000AF78604FF48053C4F20B031B6B1A467B681340FB60FB68002B14BF002301236D
S32D000108A8DBB2002BEED1FB68184607F11407BD4680BC704780B584B000AF78607B681B7803F03F0249F2344394
S32D000108D0C0F2010353F82230FB60FB68002B06D17B681B78002B02D04FF0010330E14FF48053C4F20B034FF402
S32D000108F88052C4F20B02126B42F080021A634FF48053C4F20B035B6A03F00103DBB2002BF5D14FF48053C4F2AE
S32D000109200B037A6852689A60FB6823F44003FB607B685B784FEA835303F44003FA681343FB607B685B78022BF7
S32D0001094803D1FB6843F40013FB607B685B78042B16D1FB6803F44033B3F5003F08D1FB6823F44033FB60FB68A0
S32D0001097043F44033FB6007E0FB6823F44033FB60FB6843F40033FB604FF48053C4F20B034FF48052C4F20B024A
S32D0001099852684FEA02424FEA12425A607B68DB68002B32D0FB6803F44033B3F5403F03D0FB6843F40013FB6090
S32D000109C07B681B7A002B03D0FB6843F01003FB607B68DB68012B03D9FB6843F02003FB607B68DB68B3F1FF3F44
S32D000109E813D04FF48053C4F20B034FF48052C4F20B02526811467A68D2684FEA02420A435A60FB6843F00203FF
S32D00010A10FB604FF48053C4F20B034FF000021A604FF48053C4F20B03FA68DA604FF00100C0F20E00FFF726FF36
S32D00010A380346012B0CBF00230123DBB2002B10D04FF48053C4F20B034FF48052C4F20B02126B42F4702242F047
S32D00010A6001021A634FF0010372E04FF48053C4F20B031B6B03F08003002B0CBF00230123DBB2002B0ED04FF466
S32D00010A888053C4F20B034FF48052C4F20B02126B42F001121A634FF0010355E04FF48053C4F20B031B6B03F4C2
S32D00010AB08033002B0CBF00230123DBB2002B0ED04FF48053C4F20B034FF48052C4F20B02126B42F001121A63A0
S32D00010AD84FF0FF3338E0FB6803F44033002B25D04FF48053C4F20B031B691A467B681A61FB6803F44033B3F5E8
S32D00010B00803F17D14FF48053C4F20B035B691A467B685A614FF48053C4F20B039B691A467B689A614FF4805351
S32D00010B28C4F20B03DB691A467B68DA614FF48053C4F20B034FF48052C4F20B02126B42F001021A634FF00003F5
S32D00010B50184607F11007BD4680BD00BF80B592B000AF786039604FF00003FB633B68BB6341F27413C1F6FF732F
S32D00010B787B637B6B002B03D140F6012300F0A0BC41F27833C1F6FF733B633B6B002B03D140F60B2300F094BCF7
S32D00010BA03B6B1B68FB62FB6A002B03D140F60B2300F08ABC7B6841F20432934200F0388241F2043293421BD8A6
S32D00010BC841F20132934238D041F20132934207D8032B00F03D84092B00F0298400F066BC41F20232934200F0B3
S32D00010BF0128241F20332934200F0BE8300F05ABC41F20732934200F04B8341F2073293420BD841F2053293426C
S32D00010C1800F0348241F20632934200F0108300F045BC41F20832934200F0B68241F20932934200F0C48200F080
S32D00010C4039BC786B49F22841C0F20101FFF724FD0346FB63FB6B002B40F030844FF0000387F847304FF00003A8
S32D00010C6887F82B304FF0000387F82A304FF0000387F829304FF0000387F846304FF0000387F828304FF00003BC
S32D00010C903B724FF000037B724FF00003FB604FF000033B744FF000037B6107F108031846FFF704FE0346002BE0
S32D00010CB80CBF00230123DBB2002B03D04FF00103FB63FCE340F24C4001F0A6F84FF008033B724FF000037B727D
S32D00010CE04FF4D573FB604FF000033B744FF000037B6107F108031846FFF7E0FD03463B643B6C002B0BD1BA6903
S32D00010D08FB689A4203D04FF00103FB63D7E34FF0010387F846304FF0010387F8283097F82830002B00F0C680B5
S32D00010D304FF037033B724FF000037B724FF00003FB604FF000033B744FF000037B6107F108031846FFF7B2FD8D
S32D00010D5803463B643B6C002B03D04FF00103FB63ADE34FF069033B724FF000037B724FF00003FB604FF0000348
S32D00010D803B744FF000037B6107F108031846FFF795FD0346002B0CBF00230123DBB2002B03D04FF00103FB63DC
S32D00010DA88DE3BB6903F44013002B00F083804FF000033B644FF00A0001F02EF83B6C03F101033B644FF0370328
S32D00010DD03B724FF000037B724FF00003FB604FF000033B744FF000037B6107F108031846FFF764FD0346002B40
S32D00010DF80CBF00230123DBB2002B03D04FF00103FB6336E04FF069033B724FF000037B7297F84630002B05D0EC
S32D00010E204FF00003C4F23003FB6002E04FF44013FB604FF000033B744FF000037B6107F108031846FFF73AFDAD
S32D00010E480346002B0CBF00230123DBB2002B03D04FF00103FB630CE0BB69002B05DB3B6C632B02D84FF001035C
S32D00010E7001E04FF00003002BA0D1FB6B002B40F01F833B6C632B04D94FF0000387F8463014E04FF0010387F832
S32D00010E98473097F84630002B0CD04FF0000387F84630BB6903F08043002B03D04FF0010387F8463097F82A3078
S32D00010EC0002B03D07B6B4FF007021A6097F82930002B03D07B6B4FF008021A6097F82B30002B03D07B6B4FF0C1
S32D00010EE804021A6097F84730002B0BD07B6B4FF002021A6097F84630002B03D07B6B4FF003021A6097F82B301B
S32D00010F10002B0FD097F84730002B0BD07B6B4FF005021A6097F84630002B03D07B6B4FF006021A604FF4504376
S32D00010F38C4F204034FF000021A604FF45043C4F204034FF000025A604FF45043C4F204034FF000029A604FF473
S32D00010F605043C4F204034FF00002DA604FF45043C4F204034FF000021A614FF45043C4F204034FF000025A61B9
S32D00010F88FB6A9A68FB6A5B6810461946FFF7DAFA4FF45043C4F2040340F243421A604FF45043C4F2040340F2A3
S32D00010FB043425A604FF45043C4F204034FF488629A604FF45043C4F2040340F24342DA604FF45043C4F2040302
S32D00010FD840F243421A614FF45043C4F2040340F243425A614FF4E043C4F204034FF4E042C4F2040202F58052A6
S32D0001100002F13002126842F4003203F5805303F130031A6057E2B86BFFF750FC03463B643B6C002B00F04E8236
S32D000110284FF00203FB6349E2BB6B002B03D14FF00C03FB6343E24FF48053C4F20B03DB6A03F47F434FEA13238F
S32D000110504FEA43033B644FF48053C4F20B03DB6A03F0F0034FEA131303F101023B6C02FB03F33B64FB6A9A6858
S32D000110783B6CB2FBF3F2BB6B1A6020E2BB6B002B03D14FF00C03FB6319E2BB6B1B68002B03D14FF00C03FB634E
S32D000110A011E2FFF7DBFB0346002B14BF00230123DBB2002B70D04FF45043C4F204034FF000021A604FF45043B8
S32D000110C8C4F204034FF000025A604FF45043C4F204034FF000029A604FF45043C4F204034FF00002DA604FF422
S32D000110F05043C4F204034FF000021A614FF45043C4F204034FF000025A61FB6A9A68BB6B1B6810461946FFF77B
S32D0001111819FA4FF45043C4F2040340F243421A604FF45043C4F2040340F243425A604FF45043C4F204034FF4F7
S32D0001114088629A604FF45043C4F2040340F24342DA604FF45043C4F2040340F243421A614FF45043C4F20403C0
S32D0001116840F243425A614FF4E043C4F204034FF4E042C4F2040202F5805202F13002126842F4003203F5805307
S32D0001119003F130031A6096E140F60A23FB6392E1BB6B002B03D14FF00C03FB638BE14FF48053C4F20B035B680A
S32D000111B84FEAC3434FEAD343BA6B13607FE1BB6B002B03D14FF00C03FB6378E1FFF742FB0346002B14BF0023BB
S32D000111E00123DBB2002B2AD0BB6B1A6840F6FF739A4203D94FF00C03FB6364E14FF48053C4F20B034FF4805222
S32D00011208C4F20B02526822F4FE5222F03F025A604FF48053C4F20B034FF48052C4F20B0252681146BA6B126865
S32D000112304FEAC2424FEAD2420A435A6043E140F60A23FB633FE1BB6B002B03D14FF00C03FB6338E14FF48053F9
S32D00011258C4F20B039B6A03F006034FEA53033B643B6C002B04D1BB6B4FF000021A6026E13B6C012B04D1BB6B17
S32D000112804FF001021A601EE13B6C102B04D1BB6B4FF002021A6016E14FF00503FB6312E1BB6B002B03D14FF0F7
S32D000112A80C03FB630BE1FFF7D5FA0346002B14BF00230123DBB2002B56D0BB6B1B68002B16D14FF48053C4F206
S32D000112D00B034FF48052C4F20B02926A22F006029A624FF48053C4F20B034FF48052C4F20B02926A9A62E6E087
S32D000112F8BB6B1B68012B18D14FF48053C4F20B034FF48052C4F20B02926A22F006029A624FF48053C4F20B036B
S32D000113204FF48052C4F20B02926A42F002029A62C9E0BB6B1B68022B16D14FF48053C4F20B034FF48052C4F28D
S32D000113480B02926A22F006029A624FF48053C4F20B034FF48052C4F20B02926A9A62AEE04FF00503FB63AAE0F0
S32D0001137040F60A23FB63A6E0BB6B002B03D14FF00C03FB639FE04FF48053C4F20B034FF48052C4F20B02D26AC9
S32D0001139842F00062DA624FF48053C4F20B03DB6A03F00063002B0CBF00230123DBB2002BF1D14FF48053C4F25E
S32D000113C00B031B6B03F08003002B0CBF00230123DBB2002B0FD04FF48053C4F20B034FF48052C4F20B02126BF1
S32D000113E842F080021A637B6B4FF000021A604FF48053C4F20B035B6A03F48033002B0CBF00230123DBB2002BC6
S32D0001141008D07B6B1B68002B08D17B6B4FF001021A6003E07B6B4FF000021A607B6B1A68BB6B1A6047E0BB6BED
S32D000114384FF01C021A60BB6B03F104034FF004021A60BB6B03F108034FF41E721A6036E04FF00200FFF712FA03
S32D000114604FF48053C4F20B031B6B03F4E003002B0CBF00230123DBB2002B0ED04FF48053C4F20B034FF4805261
S32D00011488C4F20B02126B42F4E0021A634FF00403FB634FF48053C4F20B034FF48052C4F20B02126B42F0320227
S32D000114B01A6308E040F60923FB6304E000BF02E000BF00E000BFFB6B184607F14807BD4680BD00BF80B489B08E
S32D000114D800AF786039607B687B6141F27413C1F6FF733B613B69002B02D14FF0000381E03B691B68022B0BD013
S32D000115003B691B68032B07D03B691B68072B03D03B691B68082B0DD14FF48053C4F20B035B6A03F00403002B68
S32D000115280CBF00230123DBB2002BF1D13B68FB6156E0FB69B3F5007F28BF4FF40073FB60FB6803F103034FEABA
S32D000115509303BB613CE04FF48053C4F20B031B6B03F4E003002B0CBF00230123DBB2002B10D04FF48053C4F2C3
S32D000115780B034FF48052C4F20B02126B42F4E00242F020021A634FF0000333E04FF48053C4F20B035B6A03F40D
S32D000115A00063002B14BF00230123DBB2002BF1D14FF48053C4F20B031B6A1A467B691A607B6903F104037B6122
S32D000115C8BB6903F1FF33BB61BB69002B0CBF00230123DBB2002BBAD1FA69FB68D31AFB61FB69002B0CBF00235E
S32D000115F00123DBB2002BA0D14FF00103184607F12407BD4680BC704780B58EB000AFB9607A600246FA73BB73CD
S32D0001161841F26013C1F6FF737B63FB7B002B02D1BB7B002B02D14FF0040381E040F20043C1F6FF731B78DBB2E9
S32D0001164003F00103DBB2002B02D04FF0030373E0BB68002B02D14FF000036DE07B6B1B7B002B03D17B684FEA1B
S32D0001166843237B60BB7B012B2CD14FF011033B754FF000037B757B68BB614FF001033B77BB7B3B6207F11403A8
S32D0001169041F202301946FFF761FA0346002B14BF00230123DBB2002B3ED0B8684FF40071FFF710FF0346002B75
S32D000116B80CBF00230123DBB2002B31D04FF00003BB732DE04FF012033B754FF000037B757B68BB614FF0010343
S32D000116E03B77BB7B3B6207F1140341F202301946FFF734FA0346002B14BF00230123DBB2002B11D0BB7B4FEAC9
S32D000117084323B8681946FFF7E1FE0346002B0CBF00230123DBB2002B02D04FF00003BB73BB7B002B02D04FF006
S32D00011730010301E04FF00003184607F13807BD4680BD00BF80B487B000AF786039607B68FB603B687B6155E052
S32D000117587B69B3F5007F28BF4FF400733B617A693B69D31A7B613B6903F103034FEA93033B613BE04FF4805394
S32D00011780C4F20B031B6B03F4E003002B0CBF00230123DBB2002B10D04FF48053C4F20B034FF48052C4F20B028F
S32D000117A8126B42F4E00242F010021A634FF0FF332EE04FF48053C4F20B035B6A03F48063002B14BF002301237F
S32D000117D0DBB2002BF1D14FF48053C4F20B03FA6812681A62FB6803F10403FB603B6903F1FF333B613B69002B50
S32D000117F80CBF00230123DBB2002BBBD17B69002B0CBF00230123DBB2002BA1D14FF00103184607F11C07BD4662
S32D0001182080BC704780B58EB000AFB9607A600246FA73BB7341F26013C1F6FF737B63FB7B002B02D1BB7B002B2C
S32D0001184802D14FF00403CAE040F20043C1F6FF731B78DBB203F00103DBB2002B02D04FF00303BCE040F2004319
S32D00011870C1F6FF731B78DBB203F00403002B0CBF00230123DBB2002B02D04FF00203AAE0BB68002B02D14FF011
S32D000118980003A4E07B6B1B7B002B03D17B684FEA43237B60BB7B012B2CD14FF018033B754FF000037B757B6844
S32D000118C0BB614FF000033B77BB7B3B6207F1140341F202301946FFF741F90346002B14BF00230123DBB2002BCD
S32D000118E83ED0B8684FF40071FFF728FF0346002B0CBF00230123DBB2002B31D04FF00003BB732DE04FF01903BB
S32D000119103B754FF000037B757B68BB614FF000033B77BB7B3B6207F1140341F202301946FFF714F90346002BB6
S32D0001193814BF00230123DBB2002B11D0BB7B4FEA4323B8681946FFF7F9FE0346002B0CBF00230123DBB2002B4E
S32D0001196002D04FF00003BB734FF00D033B754FF000037B757B6B1B69BB614FF000033B774FF000033B6207F194
S32D00011988140341F202301946FFF7E4F80346002B0CBF00230123DBB2002B02D04FF001031DE07A6A48F208030A
S32D000119B0CFF6D9731340002B02D04FF0010312E07B6A03F4F853B3F5106F0CBF00230123DBB2002BC8D1BB7B8B
S32D000119D8002B02D04FF0010301E04FF00003184607F13807BD4680BD80B58CB000AF0B463A600246FA71BB71BE
S32D00011A0041F26013C1F6FF73BB62FB79002B02D04FF004037AE04FF0010387F82F3040F20043C1F6FF731B7868
S32D00011A28DBB203F00103DBB2002B02D04FF0030368E0BB79032B5FD801A252F823F000BF591A0100631A0100AA
S32D00011A50751A0100871A01004FF0000387F82F3052E0BB6A9A683B681A604FF0000387F82F3049E03B684FF470
S32D00011A7800721A804FF0000387F82F3040E04FF009033B724FF000037B72BB6A1B69FB604FF000033B744FF098
S32D00011AA000037B6107F1080341F202301946FFF755F80346002B0CBF00230123DBB2002B02D04FF0010321E0DA
S32D00011AC87B6A03F44003002B11D13B6A4FEA934303F07F0303F101027B6A4FEA132303F0030303F1FF3302FA34
S32D00011AF003F23B681A604FF0000387F82F3003E04FF0040387F82F3097F82F30184607F13007BD4680BD00BF14
S32D00011B1880B483B000AF0346FB71FB79002B02D04FF0010305E040F20043C1F6FF731B78DBB2184607F10C0713
S32D00011B40BD4680BC704700BF80B483B000AF78604FF4E043C4F204034FF4E042C4F2040202F5805202F1380299
S32D00011B68126842F0010203F5805303F138031A604FF00003C4F204037A689A604FF00003C4F204034FF005020B
S32D00011B905A604FF00003C4F204034FF00002C4F20402126842F001021A6000BF4FF00003C4F204031B6803F013
S32D00011BB88003002B14BF00230123DBB2002BF1D14FF00003C4F204034FF00002C4F20402126822F001021A60B7
S32D00011BE007F10C07BD4680BC704700BF80B582B000AF786039607B68012B0AD13A684FF6FF739A4205D141F267
S32D00011C088030C1F6FF7000F00FF807F10807BD4680BD00BF80B500AF4FF001004FF6FF71FFF7E0FF80BD00BF30
S32D00011C3080B483B000AF78607B684FF000021A707B68184607F10C07BD4680BC704700BF80B582B000AF7860FA
S32D00011C587B681B7883F00103DBB2002B36D04FF4E043C4F2040303F5805303F128034FF400621A604FF45043B0
S32D00011C80C4F204034FF440721A624FF45043C4F204034FF440725A6241F28433C1F6FF731B684FEAD372D318C4
S32D00011CA84FEA63034FF43040C4F20E0019464FF46142FEF78DF84FF0640000F0ADF87B684FF001021A704FF012
S32D00011CD0010301E04FF00003184607F10807BD4680BD00BF80B582B000AF7860F970BA707B704FF43040C4F285
S32D00011CF80E004FF07F01FEF78BF94FF43040C4F20E004FF00801FEF783F9FB784FF43040C4F20E001946FEF709
S32D00011D207BF9BB784FF43040C4F20E001946FEF773F97B784FF43040C4F20E001946FEF76BF94FF43040C4F22B
S32D00011D480E004FF0FF01FEF763F907F10807BD4680BD00BF80B487B000AFF860B9607A60FA6844F6D353C1F2EE
S32D00011D706203A3FB02134FEA9312BB68D3187B61FA6844F6D353C1F26203A3FB02134FEA93134FF47A7101FBCE
S32D00011D9803F3D31AFB60FB684FEAC33244F6D353C1F26203A3FB02134FEA93127B68D3183B613B694FEAD333F7
S32D00011DC07A69D3187B613B694FEA43434FEA53433B614FF45043C4F203031B681A467B699A4211D34FF450438D
S32D00011DE8C4F203031B681A467B699A420BD14FF45043C4F203035B681A463B699A4202D24FF0010301E04FF025
S32D00011E100003002BDDD107F11C07BD4680BC704780B584B000AF78604FF45043C4F203031B68FB604FF4504380
S32D00011E38C4F203035B68BB607B681846F968BA68FFF788FF07F11007BD4680BD0000000080B584B000AFC7E989
S32D00011E6000014FF45043C4F203031B68FB604FF45043C4F203035B68BB60D7E900010AA3D3E90023FAF77CFCBC
S32D00011E8802460B4610461946FAF738FF03461846F968BA68FFF75EFF07F11007BD4680BD0000000000408F40DA
S32D00011EB080B584B000AF4FF45043C4F203031B68FB604FF45043C4F203035B68BB60F868FAF7E0FB02460B4646
S32D00011ED8C7E90023B868FAF7D9FB02460B46104619464FF000024FF0804303F56003FAF76DFD02460B46D7E983
S32D00011F000001FAF78BFA02460B46C7E90023D7E900231046194607F11007BD4680BD00BF80B483B000AF4FF4D0
S32D00011F285043C4F203031B684FF47A7202FB03F37B604FF45043C4F203035B684FF47A7202FB03F34FEAD33305
S32D00011F507A68D3187B607B68184607F10C07BD4680BC704780B582B000AF78600B46FB70FB787868194600F02C
S32D00011F7807F87B68184607F10807BD4680BD00BF80B483B000AF78600B46FB707B68FA781A707B681B781A4695
S32D00011FA049F23453C0F201039B5C042B00F2F98001A252F823F000BFCD1F01002B20010089200100E72001005F
S32D00011FC8452101004FF41043C4F204037A681278114649F27852C0F2010252F8212040F2031143F822104FF432
S32D00011FF07043C4F20F034FF47042C4F20F02526911467A681278104649F27852C0F2010252F8202002F01F0260
S32D000120184FF0010000FA02F26FEA02020A405A61BBE04FF42043C4F204037A681278114649F27852C0F201028E
S32D0001204052F8212040F2031143F822104FF24003C4F20F034FF24002C4F20F02526911467A681278104649F28E
S32D000120687852C0F2010252F8202002F01F024FF0010000FA02F26FEA02020A405A618CE04FF43043C4F20403BE
S32D000120907A681278114649F27852C0F2010252F8212040F2031143F822104FF28003C4F20F034FF28002C4F261
S32D000120B80F02526911467A681278104649F27852C0F2010252F8202002F01F024FF0010000FA02F26FEA020232
S32D000120E00A405A615DE04FF44043C4F204037A681278114649F27852C0F2010252F8212040F2031143F8221051
S32D000121084FF2C003C4F20F034FF2C002C4F20F02526911467A681278104649F27852C0F2010252F8202002F008
S32D000121301F024FF0010000FA02F26FEA02020A405A612EE04FF45043C4F204037A681278114649F27852C0F2B4
S32D00012158010252F8212040F2031143F822104FF47143C4F20F034FF47142C4F20F02526911467A6812781046C7
S32D0001218049F27852C0F2010252F8202002F01F024FF0010000FA02F26FEA02020A405A6100BF07F10C07BD467C
S32D000121A880BC704780B485B000AF78604FF00003FB607B681B781A4649F23453C0F201039B5C042B00F286801C
S32D000121D001A252F823F000BFED2101001D2201004D2201007D220100AD2201004FF47043C4F20F031B691A4650
S32D000121F87B681B78194649F27853C0F2010353F8213003F01F034FF0010101FA03F31340FB605FE04FF24003D3
S32D00012220C4F20F031B691A467B681B78194649F27853C0F2010353F8213003F01F034FF0010101FA03F313401C
S32D00012248FB6047E04FF28003C4F20F031B691A467B681B78194649F27853C0F2010353F8213003F01F034FF0F4
S32D00012270010101FA03F31340FB602FE04FF2C003C4F20F031B691A467B681B78194649F27853C0F2010353F803
S32D00012298213003F01F034FF0010101FA03F31340FB6017E04FF47143C4F20F031B691A467B681B78194649F227
S32D000122C07853C0F2010353F8213003F01F034FF0010101FA03F31340FB6000BFFB68002B0CBF00230123DBB2F1
S32D000122E8184607F11407BD4680BC704780B584B000AF78600B46FB704FF00B03FB73FA78FB7B786811461A467A
S32D0001231000F0ECF87B68184607F11007BD4680BD80B485B000AF78607B68A3F11003002B01DA03F11F034FEA6B
S32D000123386313FB60FB68012B48D0022B00F08980002B40F0C9804FF46142CEF200024FF46143CEF20003D3F817
S32D00012360803119467B68A3F110004FF01F03C8F200030340002B05DA03F1FF3363F01F0303F101034FF0010079
S32D0001238800FA03F30B43C2F880314FF46142CEF200024FF46143CEF200031B6819467B68A3F110004FF01F0361
S32D000123B0C8F200030340002B05DA03F1FF3363F01F0303F101034FF0010000FA03F30B43136085E04FF4614225
S32D000123D8CEF200024FF46143CEF20003D3F8843119467B68A3F110004FF01F03C8F200030340002B05DA03F1A5
S32D00012400FF3363F01F0303F101034FF0010000FA03F30B43C2F884314FF46142CEF200024FF46143CEF20003CF
S32D000124285B6819467B68A3F110004FF01F03C8F200030340002B05DA03F1FF3363F01F0303F101034FF001009E
S32D0001245000FA03F30B43536042E04FF46142CEF200024FF46143CEF20003D3F8883119467B68A3F110004FF04F
S32D000124781F03C8F200030340002B05DA03F1FF3363F01F0303F101034FF0010000FA03F30B43C2F888314FF442
S32D000124A06142CEF200024FF46143CEF200039B6819467B68A3F110004FF01F03C8F200030340002B05DA03F1B6
S32D000124C8FF3363F01F0303F101034FF0010000FA03F30B43936000BF07F11407BD4680BC704700BF80B584B0E5
S32D000124F000AF786013460A46FA70BB707B68FA781A70BB78FB737B681B781A4649F23453C0F201039B5C042B04
S32D0001251800F2F68001A252F823F000BF39250100AD2501002126010009270100952601004FF41043C4F20403B3
S32D000125407A681278114649F27852C0F2010252F82110FA7B4FEA024202F4702242F4887242F0030243F8212017
S32D000125684FF47043C4F20F034FF47042C4F20F02526911467A681278104649F27852C0F2010252F8202002F0C0
S32D000125901F024FF0010000FA02F26FEA02020A405A614FF06700FFF7BBFEADE04FF42043C4F204037A681278BA
S32D000125B8114649F27852C0F2010252F82110FA7B4FEA024202F4702242F4887242F0030243F821204FF2400387
S32D000125E0C4F20F034FF24002C4F20F02526911467A681278104649F27852C0F2010252F8202002F01F024FF050
S32D00012608010000FA02F26FEA02020A405A614FF06800FFF781FE73E04FF43043C4F204037A681278114649F272
S32D000126307852C0F2010252F82110FA7B4FEA024202F4702242F4887242F0030243F821204FF28003C4F20F0398
S32D000126584FF28002C4F20F02526911467A681278104649F27852C0F2010252F8202002F01F024FF0010000FA64
S32D0001268002F26FEA02020A405A614FF06900FFF747FE39E04FF45043C4F204037A681278114649F27852C0F2CC
S32D000126A8010252F82110FA7B4FEA024202F4702242F4887242F0030243F821204FF47143C4F20F034FF4714273
S32D000126D0C4F20F02526911467A681278104649F27852C0F2010252F8202002F01F024FF0010000FA02F26FEA62
S32D000126F802020A405A614FF06B00FFF70DFE00BF07F11007BD4680BDB0B48BB000AF49F24413C0F2010307F163
S32D0001272004041D460FCD0FC495E80F0084E80F004FF000037B6248E04FF42043C4F20403D3F8A0301A467B6ADF
S32D000127484FEA830307F12800C31853F8243C4FF0010101FA03F31340002B0CBF00230123DBB2002B29D041F257
S32D00012770B033C1F6FF737A6A53F8223003F1010141F2B033C1F6FF737A6A43F822104FF42043C4F204034FF481
S32D000127982042C4F20402D2F8A02011467A6A4FEA820207F12800821852F8242C4FF0010000FA02F20A40C3F8EB
S32D000127C0A0207B6A03F101037B627B6A072BCCBF00230123DBB2002BAED107F12C07BD46B0BC7047B0B489B062
S32D000127E800AF49F26413C0F2010307F104041D460FCD0FC495E8030084E803004FF00003FB6149E04FF430432D
S32D00012810C4F20403D3F8A0301A46FB694FEA830307F12000C31853F81C3C4FF0010101FA03F31340002B0CBFAD
S32D0001283800230123DBB2002B2AD0FB6903F1080241F2B033C1F6FF7353F8223003F1010141F2B033C1F6FF7305
S32D0001286043F822104FF43043C4F204034FF43042C4F20402D2F8A0201146FA694FEA820207F12000821852F8FB
S32D000128881C2C4FF0010000FA02F20A40C3F8A020FB6903F10103FB61FB69052BCCBF00230123DBB2002BADD192
S32D000128B007F12407BD46B0BC704700BFB0B48DB000AF49F27C13C0F201033C461D460FCD0FC40FCD0FC495E861
S32D000128D8070084E807004FF00003FB6249E04FF41043C4F20403D3F8A0301A46FB6A4FEA830307F13000C3181A
S32D0001290053F8303C4FF0010101FA03F31340002B0CBF00230123DBB2002B2AD0FB6A03F10E0241F2B033C1F647
S32D00012928FF7353F8223003F1010141F2B033C1F6FF7343F822104FF41043C4F204034FF41042C4F20402D2F861
S32D00012950A0201146FA6A4FEA820207F13000821852F8302C4FF0010000FA02F20A40C3F8A020FB6A03F1010368
S32D00012978FB62FB6A0A2BCCBF00230123DBB2002BADD107F13407BD46B0BC7047B0B487B000AF49F2A813C0F2E6
S32D000129A001033C461D460FCD0FC42B6823604FF000037B6149E04FF45043C4F20403D3F8A0301A467B694FEA68
S32D000129C8830307F11800C31853F8183C4FF0010101FA03F31340002B0CBF00230123DBB2002B2AD07B6903F184
S32D000129F0190241F2B033C1F6FF7353F8223003F1010141F2B033C1F6FF7343F822104FF45043C4F204034FF449
S32D00012A185042C4F20402D2F8A02011467A694FEA820207F11800821852F8182C4FF0010000FA02F20A40C3F855
S32D00012A40A0207B6903F101037B617B69042BCCBF00230123DBB2002BADD107F11C07BD46B0BC704780B483B02C
S32D00012A6800AF78607B681B781A4641F2B033C1F6FF7353F82230184607F10C07BD4680BC704700BF80B483B081
S32D00012A9000AF78607B681B781A4641F2B033C1F6FF734FF0000143F8221007F10C07BD4680BC704780B483B066
S32D00012AB800AF78600B46FB707B68FA781A707B68184607F10C07BD4680BC70470000000080B586B000AF786099
S32D00012AE07B681B781A4649F2F853C0F2010353F822303B617B681B781A4649F25453C0F201039B5CFB733B6905
S32D00012B08DBB203F01F03DAB241F29033C1F6FF731A723B69DBB203F01F03DAB241F29033C1F6FF735A724FF4C5
S32D00012B306143CEF200034FF01002C3F88820FB7B002B1ED14FF43040C4F2030041F29031C1F6FF7100F004FB55
